{
  "_format": "hh-sol-artifact-1",
  "contractName": "PlonkVerifier",
  "sourceName": "src/PlonkVerifier.sol",
  "abi": [
    {
      "inputs": [
        {
          "internalType": "uint256[24]",
          "name": "_proof",
          "type": "uint256[24]"
        },
        {
          "internalType": "uint256[11]",
          "name": "_pubSignals",
          "type": "uint256[11]"
        }
      ],
      "name": "verifyProof",
      "outputs": [
        {
          "internalType": "bool",
          "name": "",
          "type": "bool"
        }
      ],
      "stateMutability": "view",
      "type": "function"
    }
  ],
  "bytecode": "0x608060405234801561001057600080fd5b506129d7806100206000396000f3fe608060405234801561001057600080fd5b506004361061002b5760003560e01c8063d9b9609c14610030575b600080fd5b61004a60048036038101906100459190612929565b610060565b6040516100579190612986565b60405180910390f35b600061286c565b600080600184846000805b821561009c5782840591508482028603905084955080945082820284039050829350809250610072565b60018411156100aa57600080fd5b60008612156100b95788860195505b85965050505050505092915050565b60405181602084028301815160208301925060005b82841015610120578185527f30644e72e131a029b85045b68181585d2833e84879b9709143e1f593f00000018451830991506020850194506020840193506100dd565b61014a7f30644e72e131a029b85045b68181585d2833e84879b9709143e1f593f000000183610067565b91506020850394506020840393508592505b828411156101c6577f30644e72e131a029b85045b68181585d2833e84879b9709143e1f593f00000018551830990507f30644e72e131a029b85045b68181585d2833e84879b9709143e1f593f000000184518309915080845260208503945060208403935061015c565b81845250505050505050565b7f30644e72e131a029b85045b68181585d2833e84879b9709143e1f593f00000018110610203576000805260206000f35b50565b610212610244356101d2565b61021e610264356101d2565b61022a610284356101d2565b6102366102a4356101d2565b6102426102c4356101d2565b61024e6102e4356101d2565b565b6000806040517f2b941662c7dece6d824b8fc773c36d3937734a4be50570a4e8c2393151a56ae281527f1d3cfb000394018b3aa99fde2a9747ddc356593d14a34d101c66e60ceda1a5f060208201527f1b558726045ead58e618aadfe7de28ef1673b212837040ee66b6a73d19ec08e160408201527f27e1296b18668a92aafebcfffca66b0cd9be3ed070f8919024743bd735d08ac960608201527f1f9516922425247824093f2c4a6712330744380fe60842f1c31c76699942e83460808201527f2dd1a3d5ffb0d8b792fcda1fb036a24e477822c9aa252254731dc8612363a18060a08201527f1a97d0e4474a7e438697c8cfa1a1e86284fccb475b4871543b73d5fefa49507b60c08201527f05ade78c98974bbbdc8d29842886654bbfb30e81357b7ff13488a1cefa8eb18e60e08201527f16d53f65d21f0b118fbbeb098e78757981491ea05729839f73d5149454bcd54e6101008201527f14e1f7025b76f85e81d9595f812f94bc9c36f4fa90c61d2cff050d4156ce8fbf6101208201527f2d110b913cb19632826bc0d28f2fb6e34a6d0d642c08d489d3e789d4a715b10a6101408201527f1ba5146ad103d87be179a54e32c4c402d1409fcaef875251bb0d215e20601c286101608201527f0ed974ea57b955c2870feebd4aa3ccb3e90e2118fb201a9f3402da632949a7d86101808201527f17d560004a9bda678f345e5edce9dc73113c01251330235a3ff9aed9db6d4a866101a08201527f0e91534d35759b0582ac4e0de0d11ede59bc618a06d629e8d59ce909621331236101c08201527f12b0f50acd26f3e9d2fbb4b36cf11ad7567100f719c1328c226329a028c2d5d96101e08201526000850135610200820152602085013561022082015260408501356102408201526060850135610260820152608085013561028082015260a08501356102a082015260c08501356102c082015260e08501356102e08201526101008501356103008201526101208501356103208201526101408501356103408201526004356103608201526020600401356103808201526044356103a08201526020604401356103c08201526084356103e08201526020608401356104008201527f30644e72e131a029b85045b68181585d2833e84879b9709143e1f593f000000161042082200692508260208501527f30644e72e131a029b85045b68181585d2833e84879b9709143e1f593f0000001602080860120066040850152602084015181526040840151602082015260c4356040820152602060c4013560608201527f30644e72e131a029b85045b68181585d2833e84879b9709143e1f593f0000001608082200691508160008501527f30644e72e131a029b85045b68181585d2833e84879b9709143e1f593f00000018283096102c08501528181526101043560208201526020610104013560408201526101443560608201526020610144013560808201526101843560a08201526020610184013560c08201527f30644e72e131a029b85045b68181585d2833e84879b9709143e1f593f000000160e082200691508160608501528181526102443560208201526102643560408201526102843560608201526102a43560808201526102c43560a08201526102e43560c08201527f30644e72e131a029b85045b68181585d2833e84879b9709143e1f593f000000160e08220068060c08601527f30644e72e131a029b85045b68181585d2833e84879b9709143e1f593f000000183850960a08601527f30644e72e131a029b85045b68181585d2833e84879b9709143e1f593f000000183840992507f30644e72e131a029b85045b68181585d2833e84879b9709143e1f593f000000183840992507f30644e72e131a029b85045b68181585d2833e84879b9709143e1f593f000000183840992507f30644e72e131a029b85045b68181585d2833e84879b9709143e1f593f000000183840992507f30644e72e131a029b85045b68181585d2833e84879b9709143e1f593f000000183840992507f30644e72e131a029b85045b68181585d2833e84879b9709143e1f593f000000183840992507f30644e72e131a029b85045b68181585d2833e84879b9709143e1f593f000000183840992508260808601527f30644e72e131a029b85045b68181585d2833e84879b9709143e1f593f0000001806001850301069250826102e0860152826103008601527f30644e72e131a029b85045b68181585d2833e84879b9709143e1f593f000000181820992508260e08601527f30644e72e131a029b85045b68181585d2833e84879b9709143e1f593f00000018184099250826101008601527f30644e72e131a029b85045b68181585d2833e84879b9709143e1f593f00000018184099250826101208601527f30644e72e131a029b85045b68181585d2833e84879b9709143e1f593f00000018184099250826101408601526101c435825260206101c4013560208301526102043560408301526020610204013560608301527f30644e72e131a029b85045b68181585d2833e84879b9709143e1f593f00000016080832006610160860152505050505050565b60017f30644e72e131a029b85045b68181585d2833e84879b9709143e1f593f0000001807f30644e72e131a029b85045b68181585d2833e84879b9709143e1f593f00000018360608601510301066080096103208301527f30644e72e131a029b85045b68181585d2833e84879b9709143e1f593f00000017f16e73dfdad310991df5ce19ce85943e01dcb5564b6f24c799d0e470cba9d1811820990507f30644e72e131a029b85045b68181585d2833e84879b9709143e1f593f0000001807f30644e72e131a029b85045b68181585d2833e84879b9709143e1f593f00000018360608601510301066080096103408301527f30644e72e131a029b85045b68181585d2833e84879b9709143e1f593f00000017f16e73dfdad310991df5ce19ce85943e01dcb5564b6f24c799d0e470cba9d1811820990507f30644e72e131a029b85045b68181585d2833e84879b9709143e1f593f0000001807f30644e72e131a029b85045b68181585d2833e84879b9709143e1f593f00000018360608601510301066080096103608301527f30644e72e131a029b85045b68181585d2833e84879b9709143e1f593f00000017f16e73dfdad310991df5ce19ce85943e01dcb5564b6f24c799d0e470cba9d1811820990507f30644e72e131a029b85045b68181585d2833e84879b9709143e1f593f0000001807f30644e72e131a029b85045b68181585d2833e84879b9709143e1f593f00000018360608601510301066080096103808301527f30644e72e131a029b85045b68181585d2833e84879b9709143e1f593f00000017f16e73dfdad310991df5ce19ce85943e01dcb5564b6f24c799d0e470cba9d1811820990507f30644e72e131a029b85045b68181585d2833e84879b9709143e1f593f0000001807f30644e72e131a029b85045b68181585d2833e84879b9709143e1f593f00000018360608601510301066080096103a08301527f30644e72e131a029b85045b68181585d2833e84879b9709143e1f593f00000017f16e73dfdad310991df5ce19ce85943e01dcb5564b6f24c799d0e470cba9d1811820990507f30644e72e131a029b85045b68181585d2833e84879b9709143e1f593f0000001807f30644e72e131a029b85045b68181585d2833e84879b9709143e1f593f00000018360608601510301066080096103c08301527f30644e72e131a029b85045b68181585d2833e84879b9709143e1f593f00000017f16e73dfdad310991df5ce19ce85943e01dcb5564b6f24c799d0e470cba9d1811820990507f30644e72e131a029b85045b68181585d2833e84879b9709143e1f593f0000001807f30644e72e131a029b85045b68181585d2833e84879b9709143e1f593f00000018360608601510301066080096103e08301527f30644e72e131a029b85045b68181585d2833e84879b9709143e1f593f00000017f16e73dfdad310991df5ce19ce85943e01dcb5564b6f24c799d0e470cba9d1811820990507f30644e72e131a029b85045b68181585d2833e84879b9709143e1f593f0000001807f30644e72e131a029b85045b68181585d2833e84879b9709143e1f593f00000018360608601510301066080096104008301527f30644e72e131a029b85045b68181585d2833e84879b9709143e1f593f00000017f16e73dfdad310991df5ce19ce85943e01dcb5564b6f24c799d0e470cba9d1811820990507f30644e72e131a029b85045b68181585d2833e84879b9709143e1f593f0000001807f30644e72e131a029b85045b68181585d2833e84879b9709143e1f593f00000018360608601510301066080096104208301527f30644e72e131a029b85045b68181585d2833e84879b9709143e1f593f00000017f16e73dfdad310991df5ce19ce85943e01dcb5564b6f24c799d0e470cba9d1811820990507f30644e72e131a029b85045b68181585d2833e84879b9709143e1f593f0000001807f30644e72e131a029b85045b68181585d2833e84879b9709143e1f593f00000018360608601510301066080096104408301527f30644e72e131a029b85045b68181585d2833e84879b9709143e1f593f00000017f16e73dfdad310991df5ce19ce85943e01dcb5564b6f24c799d0e470cba9d1811820990507f30644e72e131a029b85045b68181585d2833e84879b9709143e1f593f0000001807f30644e72e131a029b85045b68181585d2833e84879b9709143e1f593f0000001836060860151030106608009610460830152611016600c61030084016100c8565b6102e0820151600191507f30644e72e131a029b85045b68181585d2833e84879b9709143e1f593f000000181610320850151096103208401527f30644e72e131a029b85045b68181585d2833e84879b9709143e1f593f00000017f16e73dfdad310991df5ce19ce85943e01dcb5564b6f24c799d0e470cba9d1811830991507f30644e72e131a029b85045b68181585d2833e84879b9709143e1f593f000000180826103408601510983096103408401527f30644e72e131a029b85045b68181585d2833e84879b9709143e1f593f00000017f16e73dfdad310991df5ce19ce85943e01dcb5564b6f24c799d0e470cba9d1811830991507f30644e72e131a029b85045b68181585d2833e84879b9709143e1f593f000000180826103608601510983096103608401527f30644e72e131a029b85045b68181585d2833e84879b9709143e1f593f00000017f16e73dfdad310991df5ce19ce85943e01dcb5564b6f24c799d0e470cba9d1811830991507f30644e72e131a029b85045b68181585d2833e84879b9709143e1f593f000000180826103808601510983096103808401527f30644e72e131a029b85045b68181585d2833e84879b9709143e1f593f00000017f16e73dfdad310991df5ce19ce85943e01dcb5564b6f24c799d0e470cba9d1811830991507f30644e72e131a029b85045b68181585d2833e84879b9709143e1f593f000000180826103a08601510983096103a08401527f30644e72e131a029b85045b68181585d2833e84879b9709143e1f593f00000017f16e73dfdad310991df5ce19ce85943e01dcb5564b6f24c799d0e470cba9d1811830991507f30644e72e131a029b85045b68181585d2833e84879b9709143e1f593f000000180826103c08601510983096103c08401527f30644e72e131a029b85045b68181585d2833e84879b9709143e1f593f00000017f16e73dfdad310991df5ce19ce85943e01dcb5564b6f24c799d0e470cba9d1811830991507f30644e72e131a029b85045b68181585d2833e84879b9709143e1f593f000000180826103e08601510983096103e08401527f30644e72e131a029b85045b68181585d2833e84879b9709143e1f593f00000017f16e73dfdad310991df5ce19ce85943e01dcb5564b6f24c799d0e470cba9d1811830991507f30644e72e131a029b85045b68181585d2833e84879b9709143e1f593f000000180826104008601510983096104008401527f30644e72e131a029b85045b68181585d2833e84879b9709143e1f593f00000017f16e73dfdad310991df5ce19ce85943e01dcb5564b6f24c799d0e470cba9d1811830991507f30644e72e131a029b85045b68181585d2833e84879b9709143e1f593f000000180826104208601510983096104208401527f30644e72e131a029b85045b68181585d2833e84879b9709143e1f593f00000017f16e73dfdad310991df5ce19ce85943e01dcb5564b6f24c799d0e470cba9d1811830991507f30644e72e131a029b85045b68181585d2833e84879b9709143e1f593f000000180826104408601510983096104408401527f30644e72e131a029b85045b68181585d2833e84879b9709143e1f593f00000017f16e73dfdad310991df5ce19ce85943e01dcb5564b6f24c799d0e470cba9d1811830991507f30644e72e131a029b85045b68181585d2833e84879b9709143e1f593f00000018082610460860151098309610460840152505050565b60007f30644e72e131a029b85045b68181585d2833e84879b9709143e1f593f0000001807f30644e72e131a029b85045b68181585d2833e84879b9709143e1f593f00000016000860135610320860151098303010690507f30644e72e131a029b85045b68181585d2833e84879b9709143e1f593f0000001807f30644e72e131a029b85045b68181585d2833e84879b9709143e1f593f00000016020860135610340860151098303010690507f30644e72e131a029b85045b68181585d2833e84879b9709143e1f593f0000001807f30644e72e131a029b85045b68181585d2833e84879b9709143e1f593f00000016040860135610360860151098303010690507f30644e72e131a029b85045b68181585d2833e84879b9709143e1f593f0000001807f30644e72e131a029b85045b68181585d2833e84879b9709143e1f593f00000016060860135610380860151098303010690507f30644e72e131a029b85045b68181585d2833e84879b9709143e1f593f0000001807f30644e72e131a029b85045b68181585d2833e84879b9709143e1f593f000000160808601356103a0860151098303010690507f30644e72e131a029b85045b68181585d2833e84879b9709143e1f593f0000001807f30644e72e131a029b85045b68181585d2833e84879b9709143e1f593f000000160a08601356103c0860151098303010690507f30644e72e131a029b85045b68181585d2833e84879b9709143e1f593f0000001807f30644e72e131a029b85045b68181585d2833e84879b9709143e1f593f000000160c08601356103e0860151098303010690507f30644e72e131a029b85045b68181585d2833e84879b9709143e1f593f0000001807f30644e72e131a029b85045b68181585d2833e84879b9709143e1f593f000000160e0860135610400860151098303010690507f30644e72e131a029b85045b68181585d2833e84879b9709143e1f593f0000001807f30644e72e131a029b85045b68181585d2833e84879b9709143e1f593f0000001610100860135610420860151098303010690507f30644e72e131a029b85045b68181585d2833e84879b9709143e1f593f0000001807f30644e72e131a029b85045b68181585d2833e84879b9709143e1f593f0000001610120860135610440860151098303010690507f30644e72e131a029b85045b68181585d2833e84879b9709143e1f593f0000001807f30644e72e131a029b85045b68181585d2833e84879b9709143e1f593f00000016101408601356104608601510983030106905080610180830152505050565b6101808101517f30644e72e131a029b85045b68181585d2833e84879b9709143e1f593f00000016102c0830151610320840151097f30644e72e131a029b85045b68181585d2833e84879b9709143e1f593f0000001806102a43560208601510961024435087f30644e72e131a029b85045b68181585d2833e84879b9709143e1f593f00000016040850151820890507f30644e72e131a029b85045b68181585d2833e84879b9709143e1f593f0000001806102c43560208701510961026435087f30644e72e131a029b85045b68181585d2833e84879b9709143e1f593f00000016040860151820890507f30644e72e131a029b85045b68181585d2833e84879b9709143e1f593f0000001604086015161028435087f30644e72e131a029b85045b68181585d2833e84879b9709143e1f593f0000001817f30644e72e131a029b85045b68181585d2833e84879b9709143e1f593f0000001848609097f30644e72e131a029b85045b68181585d2833e84879b9709143e1f593f00000016102e435820990507f30644e72e131a029b85045b68181585d2833e84879b9709143e1f593f00000016000880151820990507f30644e72e131a029b85045b68181585d2833e84879b9709143e1f593f000000180867f30644e72e131a029b85045b68181585d2833e84879b9709143e1f593f0000001030687087f30644e72e131a029b85045b68181585d2833e84879b9709143e1f593f000000180837f30644e72e131a029b85045b68181585d2833e84879b9709143e1f593f0000001030682089050806101a08901525050505050505050565b81518152602082015160208201525050565b818152826020820152505050565b81358152602082013560208201525050565b6040518151815260208201516020820152825160408201526020830151606082015260408260808360066107d05a03fa80611b7f576000805260206000f35b50505050565b600060405183815284602082015285604082015260408160608360076107d05a03fa915081611bb8576000805260206000f35b825160408201526020830151606082015260408360808360066107d05a03fa915081611be8576000805260206000f35b505050505050565b600060405183815284602082015285604082015260408360608360076107d05a03fa915081611c23576000805260206000f35b505050505050565b611c3c836020840151845184611bf0565b505050565b6101c0810160408201516040516101008101604052611ca17f14e1f7025b76f85e81d9595f812f94bc9c36f4fa90c61d2cff050d4156ce8fbf7f16d53f65d21f0b118fbbeb098e78757981491ea05729839f73d5149454bcd54e85611b20565b611d167f30644e72e131a029b85045b68181585d2833e84879b9709143e1f593f00000016102643561024435097f1d3cfb000394018b3aa99fde2a9747ddc356593d14a34d101c66e60ceda1a5f07f2b941662c7dece6d824b8fc773c36d3937734a4be50570a4e8c2393151a56ae286611b85565b611d65610244357f27e1296b18668a92aafebcfffca66b0cd9be3ed070f8919024743bd735d08ac97f1b558726045ead58e618aadfe7de28ef1673b212837040ee66b6a73d19ec08e186611b85565b611db4610264357f2dd1a3d5ffb0d8b792fcda1fb036a24e477822c9aa252254731dc8612363a1807f1f9516922425247824093f2c4a6712330744380fe60842f1c31c76699942e83486611b85565b611e03610284357f05ade78c98974bbbdc8d29842886654bbfb30e81357b7ff13488a1cefa8eb18e7f1a97d0e4474a7e438697c8cfa1a1e86284fccb475b4871543b73d5fefa49507b86611b85565b60a08401517f30644e72e131a029b85045b68181585d2833e84879b9709143e1f593f0000001837f30644e72e131a029b85045b68181585d2833e84879b9709143e1f593f0000001836102443508087f30644e72e131a029b85045b68181585d2833e84879b9709143e1f593f0000001847f30644e72e131a029b85045b68181585d2833e84879b9709143e1f593f000000180600286096102643508087f30644e72e131a029b85045b68181585d2833e84879b9709143e1f593f0000001857f30644e72e131a029b85045b68181585d2833e84879b9709143e1f593f000000180600387096102843508087f30644e72e131a029b85045b68181585d2833e84879b9709143e1f593f000000160008901517f30644e72e131a029b85045b68181585d2833e84879b9709143e1f593f0000001837f30644e72e131a029b85045b68181585d2833e84879b9709143e1f593f000000186880909097f30644e72e131a029b85045b68181585d2833e84879b9709143e1f593f00000016102c08a01516103208b015109611f9860c460c08901611b2e565b611ff17f30644e72e131a029b85045b68181585d2833e84879b9709143e1f593f00000016101608c01517f30644e72e131a029b85045b68181585d2833e84879b9709143e1f593f00000018486080860c0890189611c2b565b7f30644e72e131a029b85045b68181585d2833e84879b9709143e1f593f0000001887f30644e72e131a029b85045b68181585d2833e84879b9709143e1f593f0000001806102a43560208f01510961024435080894507f30644e72e131a029b85045b68181585d2833e84879b9709143e1f593f0000001887f30644e72e131a029b85045b68181585d2833e84879b9709143e1f593f0000001806102c43560208f01510961026435080893507f30644e72e131a029b85045b68181585d2833e84879b9709143e1f593f00000016102e4357f30644e72e131a029b85045b68181585d2833e84879b9709143e1f593f000000160208d015160008e0151090992506121867f30644e72e131a029b85045b68181585d2833e84879b9709143e1f593f0000001847f30644e72e131a029b85045b68181585d2833e84879b9709143e1f593f0000001878909097f12b0f50acd26f3e9d2fbb4b36cf11ad7567100f719c1328c226329a028c2d5d97f0e91534d35759b0582ac4e0de0d11ede59bc618a06d629e8d59ce9096213312360408b01611bf0565b61219561010460808901611b2e565b6121b160808b0151602061014401356101443560808b01611b85565b7f30644e72e131a029b85045b68181585d2833e84879b9709143e1f593f000000160808b015160808c0151096121f581602061018401356101843560808c01611b85565b6122116102e08c015160a08a015160808b015160808c01611bf0565b7f30644e72e131a029b85045b68181585d97816a916871ca8d3c208c16d87cfd47602060408a0101517f30644e72e131a029b85045b68181585d97816a916871ca8d3c208c16d87cfd470306602060408a0101527f30644e72e131a029b85045b68181585d97816a916871ca8d3c208c16d87cfd4760a08901517f30644e72e131a029b85045b68181585d97816a916871ca8d3c208c16d87cfd47030660a08901526122bd888b611b40565b6122ca604089018b611b40565b6122d7608089018b611b40565b5050505050505050505050565b61020081016122f76101c0830182611b0e565b61230e60c083015160206004013560043584611b85565b61232560e083015160206044013560443584611b85565b61233d61010083015160206084013560843584611b85565b61238e6101208301517f1ba5146ad103d87be179a54e32c4c402d1409fcaef875251bb0d215e20601c287f2d110b913cb19632826bc0d28f2fb6e34a6d0d642c08d489d3e789d4a715b10a84611b85565b6123df6101408301517f17d560004a9bda678f345e5edce9dc73113c01251330235a3ff9aed9db6d4a867f0ed974ea57b955c2870feebd4aa3ccb3e90e2118fb201a9f3402da632949a7d884611b85565b5050565b7f30644e72e131a029b85045b68181585d2833e84879b9709143e1f593f00000016101a08201517f30644e72e131a029b85045b68181585d2833e84879b9709143e1f593f000000103067f30644e72e131a029b85045b68181585d2833e84879b9709143e1f593f00000018060c08401516102443509820890507f30644e72e131a029b85045b68181585d2833e84879b9709143e1f593f00000018060e08401516102643509820890507f30644e72e131a029b85045b68181585d2833e84879b9709143e1f593f0000001806101008401516102843509820890507f30644e72e131a029b85045b68181585d2833e84879b9709143e1f593f0000001806101208401516102a43509820890507f30644e72e131a029b85045b68181585d2833e84879b9709143e1f593f0000001806101408401516102c43509820890507f30644e72e131a029b85045b68181585d2833e84879b9709143e1f593f0000001806101608401516102e435098208905061256381600260016102408601611bf0565b5050565b6000604051610240810160405261018081016101c08201610200830161258f6101c484611b2e565b61259b61020483611b2e565b6125ab6101608701518386611c2b565b6125b58385611b40565b7f30644e72e131a029b85045b68181585d97816a916871ca8d3c208c16d87cfd4760208501517f30644e72e131a029b85045b68181585d97816a916871ca8d3c208c16d87cfd47030660208501527f26186a2d65ee4d2f9c9a5b91f86597d35f192cd120caf7e935d8443d1938e23d60408501527f30441fd1b5d3370482c42152a8899027716989a6996c2535bc9f7fee8aaef79e60608501527f1970ea81dd6992adfbc571effb03503adbbb6a857f578403c6c40e22d65b3c0260808501527f054793348f12c0cf5622c340573cb277586319de359ab9389778f689786b1e4860a08501526126ad60608701518460c08701611c2b565b7f30644e72e131a029b85045b68181585d2833e84879b9709143e1f593f00000016060870151610160880151097f30644e72e131a029b85045b68181585d2833e84879b9709143e1f593f00000017f16e73dfdad310991df5ce19ce85943e01dcb5564b6f24c799d0e470cba9d18118209905061272b818484611c2b565b6127388260c08701611b40565b612749610200880160c08701611b40565b7f30644e72e131a029b85045b68181585d97816a916871ca8d3c208c16d87cfd476020610240018801517f30644e72e131a029b85045b68181585d97816a916871ca8d3c208c16d87cfd4703066020610240018801526127b0610240880160c08701611b40565b7f198e9393920d483a7260bfb731fb5d25f1aa493335a9e71297e485b7aef312c26101008601527f1800deef121f1e76426a00665e5c4479674322d4f75edadd46debd5cd992f6ed6101208601527f090689d0585ff075ec9e99ad690c3395bc4b313370b38ef355acdadcd122975b6101408601527f12c85ea5db8c6deb4aab71808dcb408fe3d1e7690c43d37b4ce6cc0166fa7daa6101608601526020856101808760086107d05a03fa855181169650505050505050919050565b604051610480810160405261287f610206565b6128898382610250565b612892816109a2565b61289c8382611504565b6128a5816118bc565b6128ae81611c41565b6128b7816122e4565b6128c0816123e3565b6128c981612567565b61048082036040528060005260206000f35b600080fd5b600080fd5b600081905082602060180282011115612901576129006128e0565b5b92915050565b6000819050826020600b0282011115612923576129226128e0565b5b92915050565b6000806104608385031215612941576129406128db565b5b600061294f858286016128e5565b92505061030061296185828601612907565b9150509250929050565b60008115159050919050565b6129808161296b565b82525050565b600060208201905061299b6000830184612977565b9291505056fea26469706673582212206cff5adb70147ef05e372fcb78bf4b37d0915b769c1bee4784c0ea9c9af856ae64736f6c63430008180033",
  "linkReferences": {},
  "deployedLinkReferences": {}
}