{
  "_format": "hh-sol-artifact-1",
  "contractName": "ZeekayWarden",
  "sourceName": "src/ZeekayWarden.sol",
  "abi": [
    {
      "inputs": [
        {
          "internalType": "address",
          "name": "plonkVerifierAddress",
          "type": "address"
        },
        {
          "internalType": "uint256",
          "name": "_platformFee",
          "type": "uint256"
        },
        {
          "internalType": "string",
          "name": "_chainName",
          "type": "string"
        },
        {
          "internalType": "address",
          "name": "initialOwner",
          "type": "address"
        }
      ],
      "stateMutability": "nonpayable",
      "type": "constructor"
    },
    {
      "inputs": [
        {
          "internalType": "address",
          "name": "sender",
          "type": "address"
        },
        {
          "internalType": "uint256",
          "name": "tokenId",
          "type": "uint256"
        },
        {
          "internalType": "address",
          "name": "owner",
          "type": "address"
        }
      ],
      "name": "ERC721IncorrectOwner",
      "type": "error"
    },
    {
      "inputs": [
        {
          "internalType": "address",
          "name": "operator",
          "type": "address"
        },
        {
          "internalType": "uint256",
          "name": "tokenId",
          "type": "uint256"
        }
      ],
      "name": "ERC721InsufficientApproval",
      "type": "error"
    },
    {
      "inputs": [
        {
          "internalType": "address",
          "name": "approver",
          "type": "address"
        }
      ],
      "name": "ERC721InvalidApprover",
      "type": "error"
    },
    {
      "inputs": [
        {
          "internalType": "address",
          "name": "operator",
          "type": "address"
        }
      ],
      "name": "ERC721InvalidOperator",
      "type": "error"
    },
    {
      "inputs": [
        {
          "internalType": "address",
          "name": "owner",
          "type": "address"
        }
      ],
      "name": "ERC721InvalidOwner",
      "type": "error"
    },
    {
      "inputs": [
        {
          "internalType": "address",
          "name": "receiver",
          "type": "address"
        }
      ],
      "name": "ERC721InvalidReceiver",
      "type": "error"
    },
    {
      "inputs": [
        {
          "internalType": "address",
          "name": "sender",
          "type": "address"
        }
      ],
      "name": "ERC721InvalidSender",
      "type": "error"
    },
    {
      "inputs": [
        {
          "internalType": "uint256",
          "name": "tokenId",
          "type": "uint256"
        }
      ],
      "name": "ERC721NonexistentToken",
      "type": "error"
    },
    {
      "inputs": [
        {
          "internalType": "address",
          "name": "owner",
          "type": "address"
        }
      ],
      "name": "OwnableInvalidOwner",
      "type": "error"
    },
    {
      "inputs": [
        {
          "internalType": "address",
          "name": "account",
          "type": "address"
        }
      ],
      "name": "OwnableUnauthorizedAccount",
      "type": "error"
    },
    {
      "anonymous": false,
      "inputs": [
        {
          "indexed": true,
          "internalType": "address",
          "name": "owner",
          "type": "address"
        },
        {
          "indexed": true,
          "internalType": "address",
          "name": "approved",
          "type": "address"
        },
        {
          "indexed": true,
          "internalType": "uint256",
          "name": "tokenId",
          "type": "uint256"
        }
      ],
      "name": "Approval",
      "type": "event"
    },
    {
      "anonymous": false,
      "inputs": [
        {
          "indexed": true,
          "internalType": "address",
          "name": "owner",
          "type": "address"
        },
        {
          "indexed": true,
          "internalType": "address",
          "name": "operator",
          "type": "address"
        },
        {
          "indexed": false,
          "internalType": "bool",
          "name": "approved",
          "type": "bool"
        }
      ],
      "name": "ApprovalForAll",
      "type": "event"
    },
    {
      "anonymous": false,
      "inputs": [
        {
          "indexed": true,
          "internalType": "address",
          "name": "to",
          "type": "address"
        },
        {
          "indexed": true,
          "internalType": "uint256",
          "name": "tokenId",
          "type": "uint256"
        }
      ],
      "name": "Attest",
      "type": "event"
    },
    {
      "anonymous": false,
      "inputs": [
        {
          "indexed": false,
          "internalType": "uint256",
          "name": "_fromTokenId",
          "type": "uint256"
        },
        {
          "indexed": false,
          "internalType": "uint256",
          "name": "_toTokenId",
          "type": "uint256"
        }
      ],
      "name": "BatchMetadataUpdate",
      "type": "event"
    },
    {
      "anonymous": false,
      "inputs": [
        {
          "indexed": false,
          "internalType": "bool",
          "name": "result",
          "type": "bool"
        }
      ],
      "name": "MemberVerified",
      "type": "event"
    },
    {
      "anonymous": false,
      "inputs": [
        {
          "indexed": false,
          "internalType": "uint256",
          "name": "_tokenId",
          "type": "uint256"
        }
      ],
      "name": "MetadataUpdate",
      "type": "event"
    },
    {
      "anonymous": false,
      "inputs": [
        {
          "indexed": true,
          "internalType": "address",
          "name": "previousOwner",
          "type": "address"
        },
        {
          "indexed": true,
          "internalType": "address",
          "name": "newOwner",
          "type": "address"
        }
      ],
      "name": "OwnershipTransferred",
      "type": "event"
    },
    {
      "anonymous": false,
      "inputs": [
        {
          "indexed": true,
          "internalType": "address",
          "name": "to",
          "type": "address"
        },
        {
          "indexed": true,
          "internalType": "uint256",
          "name": "tokenId",
          "type": "uint256"
        }
      ],
      "name": "Revoke",
      "type": "event"
    },
    {
      "anonymous": false,
      "inputs": [
        {
          "indexed": true,
          "internalType": "address",
          "name": "from",
          "type": "address"
        },
        {
          "indexed": true,
          "internalType": "address",
          "name": "to",
          "type": "address"
        },
        {
          "indexed": true,
          "internalType": "uint256",
          "name": "tokenId",
          "type": "uint256"
        }
      ],
      "name": "Transfer",
      "type": "event"
    },
    {
      "anonymous": false,
      "inputs": [
        {
          "indexed": false,
          "internalType": "bool",
          "name": "result",
          "type": "bool"
        }
      ],
      "name": "WardenCreated",
      "type": "event"
    },
    {
      "inputs": [],
      "name": "PLATFORM_FEE",
      "outputs": [
        {
          "internalType": "uint256",
          "name": "",
          "type": "uint256"
        }
      ],
      "stateMutability": "view",
      "type": "function"
    },
    {
      "inputs": [],
      "name": "_nextTokenId",
      "outputs": [
        {
          "internalType": "uint256",
          "name": "",
          "type": "uint256"
        }
      ],
      "stateMutability": "view",
      "type": "function"
    },
    {
      "inputs": [
        {
          "internalType": "address",
          "name": "to",
          "type": "address"
        },
        {
          "internalType": "uint256",
          "name": "tokenId",
          "type": "uint256"
        }
      ],
      "name": "approve",
      "outputs": [],
      "stateMutability": "nonpayable",
      "type": "function"
    },
    {
      "inputs": [
        {
          "internalType": "address",
          "name": "owner",
          "type": "address"
        }
      ],
      "name": "balanceOf",
      "outputs": [
        {
          "internalType": "uint256",
          "name": "",
          "type": "uint256"
        }
      ],
      "stateMutability": "view",
      "type": "function"
    },
    {
      "inputs": [
        {
          "internalType": "string",
          "name": "platformUID",
          "type": "string"
        },
        {
          "internalType": "string",
          "name": "serverId",
          "type": "string"
        }
      ],
      "name": "checkUser",
      "outputs": [
        {
          "internalType": "bool",
          "name": "",
          "type": "bool"
        }
      ],
      "stateMutability": "view",
      "type": "function"
    },
    {
      "inputs": [
        {
          "internalType": "string",
          "name": "serverId",
          "type": "string"
        },
        {
          "internalType": "string",
          "name": "wardenName",
          "type": "string"
        },
        {
          "internalType": "string[3][]",
          "name": "roles",
          "type": "string[3][]"
        }
      ],
      "name": "createWarden",
      "outputs": [],
      "stateMutability": "nonpayable",
      "type": "function"
    },
    {
      "inputs": [
        {
          "internalType": "uint256",
          "name": "tokenId",
          "type": "uint256"
        }
      ],
      "name": "getApproved",
      "outputs": [
        {
          "internalType": "address",
          "name": "",
          "type": "address"
        }
      ],
      "stateMutability": "view",
      "type": "function"
    },
    {
      "inputs": [
        {
          "internalType": "string",
          "name": "serverId",
          "type": "string"
        }
      ],
      "name": "getRolesofServer",
      "outputs": [
        {
          "internalType": "string",
          "name": "",
          "type": "string"
        },
        {
          "internalType": "string[3][]",
          "name": "",
          "type": "string[3][]"
        }
      ],
      "stateMutability": "view",
      "type": "function"
    },
    {
      "inputs": [
        {
          "internalType": "string",
          "name": "serverId",
          "type": "string"
        }
      ],
      "name": "getUserRoles",
      "outputs": [
        {
          "internalType": "string[]",
          "name": "",
          "type": "string[]"
        }
      ],
      "stateMutability": "view",
      "type": "function"
    },
    {
      "inputs": [
        {
          "internalType": "address",
          "name": "owner",
          "type": "address"
        },
        {
          "internalType": "address",
          "name": "operator",
          "type": "address"
        }
      ],
      "name": "isApprovedForAll",
      "outputs": [
        {
          "internalType": "bool",
          "name": "",
          "type": "bool"
        }
      ],
      "stateMutability": "view",
      "type": "function"
    },
    {
      "inputs": [
        {
          "internalType": "address",
          "name": "",
          "type": "address"
        },
        {
          "internalType": "string",
          "name": "",
          "type": "string"
        }
      ],
      "name": "members",
      "outputs": [
        {
          "internalType": "string",
          "name": "platformUID",
          "type": "string"
        }
      ],
      "stateMutability": "view",
      "type": "function"
    },
    {
      "inputs": [
        {
          "internalType": "string",
          "name": "serverId",
          "type": "string"
        },
        {
          "internalType": "string",
          "name": "wardenName",
          "type": "string"
        },
        {
          "internalType": "string[3][]",
          "name": "roles",
          "type": "string[3][]"
        },
        {
          "internalType": "address[]",
          "name": "memberAddresses",
          "type": "address[]"
        },
        {
          "internalType": "string",
          "name": "tokenUri",
          "type": "string"
        }
      ],
      "name": "mintSBTAndCreateWarden",
      "outputs": [],
      "stateMutability": "payable",
      "type": "function"
    },
    {
      "inputs": [],
      "name": "name",
      "outputs": [
        {
          "internalType": "string",
          "name": "",
          "type": "string"
        }
      ],
      "stateMutability": "view",
      "type": "function"
    },
    {
      "inputs": [],
      "name": "owner",
      "outputs": [
        {
          "internalType": "address",
          "name": "",
          "type": "address"
        }
      ],
      "stateMutability": "view",
      "type": "function"
    },
    {
      "inputs": [
        {
          "internalType": "uint256",
          "name": "tokenId",
          "type": "uint256"
        }
      ],
      "name": "ownerOf",
      "outputs": [
        {
          "internalType": "address",
          "name": "",
          "type": "address"
        }
      ],
      "stateMutability": "view",
      "type": "function"
    },
    {
      "inputs": [
        {
          "internalType": "address",
          "name": "",
          "type": "address"
        },
        {
          "internalType": "uint256",
          "name": "",
          "type": "uint256"
        }
      ],
      "name": "owners",
      "outputs": [
        {
          "internalType": "string",
          "name": "",
          "type": "string"
        }
      ],
      "stateMutability": "view",
      "type": "function"
    },
    {
      "inputs": [],
      "name": "renounceOwnership",
      "outputs": [],
      "stateMutability": "nonpayable",
      "type": "function"
    },
    {
      "inputs": [],
      "name": "s_plonkVerifierAddress",
      "outputs": [
        {
          "internalType": "address",
          "name": "",
          "type": "address"
        }
      ],
      "stateMutability": "view",
      "type": "function"
    },
    {
      "inputs": [
        {
          "internalType": "address",
          "name": "from",
          "type": "address"
        },
        {
          "internalType": "address",
          "name": "to",
          "type": "address"
        },
        {
          "internalType": "uint256",
          "name": "tokenId",
          "type": "uint256"
        }
      ],
      "name": "safeTransferFrom",
      "outputs": [],
      "stateMutability": "nonpayable",
      "type": "function"
    },
    {
      "inputs": [
        {
          "internalType": "address",
          "name": "from",
          "type": "address"
        },
        {
          "internalType": "address",
          "name": "to",
          "type": "address"
        },
        {
          "internalType": "uint256",
          "name": "tokenId",
          "type": "uint256"
        },
        {
          "internalType": "bytes",
          "name": "data",
          "type": "bytes"
        }
      ],
      "name": "safeTransferFrom",
      "outputs": [],
      "stateMutability": "nonpayable",
      "type": "function"
    },
    {
      "inputs": [
        {
          "internalType": "address",
          "name": "operator",
          "type": "address"
        },
        {
          "internalType": "bool",
          "name": "approved",
          "type": "bool"
        }
      ],
      "name": "setApprovalForAll",
      "outputs": [],
      "stateMutability": "nonpayable",
      "type": "function"
    },
    {
      "inputs": [
        {
          "internalType": "bytes",
          "name": "proof",
          "type": "bytes"
        },
        {
          "internalType": "uint256[]",
          "name": "pubSignals",
          "type": "uint256[]"
        },
        {
          "internalType": "string[]",
          "name": "data",
          "type": "string[]"
        },
        {
          "internalType": "string[]",
          "name": "roles",
          "type": "string[]"
        }
      ],
      "name": "submitProofAndAddUser",
      "outputs": [
        {
          "internalType": "bool",
          "name": "",
          "type": "bool"
        }
      ],
      "stateMutability": "nonpayable",
      "type": "function"
    },
    {
      "inputs": [
        {
          "internalType": "bytes4",
          "name": "interfaceId",
          "type": "bytes4"
        }
      ],
      "name": "supportsInterface",
      "outputs": [
        {
          "internalType": "bool",
          "name": "",
          "type": "bool"
        }
      ],
      "stateMutability": "view",
      "type": "function"
    },
    {
      "inputs": [],
      "name": "symbol",
      "outputs": [
        {
          "internalType": "string",
          "name": "",
          "type": "string"
        }
      ],
      "stateMutability": "view",
      "type": "function"
    },
    {
      "inputs": [
        {
          "internalType": "uint256",
          "name": "tokenId",
          "type": "uint256"
        }
      ],
      "name": "tokenURI",
      "outputs": [
        {
          "internalType": "string",
          "name": "",
          "type": "string"
        }
      ],
      "stateMutability": "view",
      "type": "function"
    },
    {
      "inputs": [
        {
          "internalType": "address",
          "name": "from",
          "type": "address"
        },
        {
          "internalType": "address",
          "name": "to",
          "type": "address"
        },
        {
          "internalType": "uint256",
          "name": "tokenId",
          "type": "uint256"
        }
      ],
      "name": "transferFrom",
      "outputs": [],
      "stateMutability": "nonpayable",
      "type": "function"
    },
    {
      "inputs": [
        {
          "internalType": "address",
          "name": "newOwner",
          "type": "address"
        }
      ],
      "name": "transferOwnership",
      "outputs": [],
      "stateMutability": "nonpayable",
      "type": "function"
    },
    {
      "inputs": [
        {
          "internalType": "string",
          "name": "",
          "type": "string"
        }
      ],
      "name": "wardens",
      "outputs": [
        {
          "internalType": "string",
          "name": "name",
          "type": "string"
        },
        {
          "internalType": "address",
          "name": "owner",
          "type": "address"
        }
      ],
      "stateMutability": "view",
      "type": "function"
    }
  ],
  "bytecode": "0x60806040526001600b553480156200001657600080fd5b5060405162005a1238038062005a1283398181016040528101906200003c9190620004b3565b806040518060400160405280600981526020017f57617264656e4e465400000000000000000000000000000000000000000000008152506040518060400160405280600481526020017f57534254000000000000000000000000000000000000000000000000000000008152508160009081620000ba919062000785565b508060019081620000cc919062000785565b505050600073ffffffffffffffffffffffffffffffffffffffff168173ffffffffffffffffffffffffffffffffffffffff1603620001445760006040517f1e4fbdf70000000000000000000000000000000000000000000000000000000081526004016200013b91906200087d565b60405180910390fd5b6200015581620001ba60201b60201c565b5083600860006101000a81548173ffffffffffffffffffffffffffffffffffffffff021916908373ffffffffffffffffffffffffffffffffffffffff1602179055508260098190555081600a9081620001af919062000785565b50505050506200089a565b6000600760009054906101000a900473ffffffffffffffffffffffffffffffffffffffff16905081600760006101000a81548173ffffffffffffffffffffffffffffffffffffffff021916908373ffffffffffffffffffffffffffffffffffffffff1602179055508173ffffffffffffffffffffffffffffffffffffffff168173ffffffffffffffffffffffffffffffffffffffff167f8be0079c531659141344cd1fd0a4f28419497f9722a3daafe3b4186f6b6457e060405160405180910390a35050565b6000604051905090565b600080fd5b600080fd5b600073ffffffffffffffffffffffffffffffffffffffff82169050919050565b6000620002c18262000294565b9050919050565b620002d381620002b4565b8114620002df57600080fd5b50565b600081519050620002f381620002c8565b92915050565b6000819050919050565b6200030e81620002f9565b81146200031a57600080fd5b50565b6000815190506200032e8162000303565b92915050565b600080fd5b600080fd5b6000601f19601f8301169050919050565b7f4e487b7100000000000000000000000000000000000000000000000000000000600052604160045260246000fd5b62000389826200033e565b810181811067ffffffffffffffff82111715620003ab57620003aa6200034f565b5b80604052505050565b6000620003c062000280565b9050620003ce82826200037e565b919050565b600067ffffffffffffffff821115620003f157620003f06200034f565b5b620003fc826200033e565b9050602081019050919050565b60005b83811015620004295780820151818401526020810190506200040c565b60008484015250505050565b60006200044c6200044684620003d3565b620003b4565b9050828152602081018484840111156200046b576200046a62000339565b5b6200047884828562000409565b509392505050565b600082601f83011262000498576200049762000334565b5b8151620004aa84826020860162000435565b91505092915050565b60008060008060808587031215620004d057620004cf6200028a565b5b6000620004e087828801620002e2565b9450506020620004f3878288016200031d565b935050604085015167ffffffffffffffff8111156200051757620005166200028f565b5b620005258782880162000480565b92505060606200053887828801620002e2565b91505092959194509250565b600081519050919050565b7f4e487b7100000000000000000000000000000000000000000000000000000000600052602260045260246000fd5b600060028204905060018216806200059757607f821691505b602082108103620005ad57620005ac6200054f565b5b50919050565b60008190508160005260206000209050919050565b60006020601f8301049050919050565b600082821b905092915050565b600060088302620006177fffffffffffffffffffffffffffffffffffffffffffffffffffffffffffffffff82620005d8565b620006238683620005d8565b95508019841693508086168417925050509392505050565b6000819050919050565b600062000666620006606200065a84620002f9565b6200063b565b620002f9565b9050919050565b6000819050919050565b620006828362000645565b6200069a62000691826200066d565b848454620005e5565b825550505050565b600090565b620006b1620006a2565b620006be81848462000677565b505050565b5b81811015620006e657620006da600082620006a7565b600181019050620006c4565b5050565b601f8211156200073557620006ff81620005b3565b6200070a84620005c8565b810160208510156200071a578190505b620007326200072985620005c8565b830182620006c3565b50505b505050565b600082821c905092915050565b60006200075a600019846008026200073a565b1980831691505092915050565b600062000775838362000747565b9150826002028217905092915050565b620007908262000544565b67ffffffffffffffff811115620007ac57620007ab6200034f565b5b620007b882546200057e565b620007c5828285620006ea565b600060209050601f831160018114620007fd5760008415620007e8578287015190505b620007f4858262000767565b86555062000864565b601f1984166200080d86620005b3565b60005b82811015620008375784890151825560018201915060208501945060208101905062000810565b8683101562000857578489015162000853601f89168262000747565b8355505b6001600288020188555050505b505050505050565b6200087781620002b4565b82525050565b60006020820190506200089460008301846200086c565b92915050565b61516880620008aa6000396000f3fe6080604052600436106101b75760003560e01c80636c883fbf116100ec5780639b3e27871161008a578063b88d4fde11610064578063b88d4fde1461065f578063c87b56dd14610688578063e985e9c5146106c5578063f2fde38b14610702576101b7565b80639b3e2787146105bc578063a22cb465146105f9578063b51c0b6514610622576101b7565b806389fe3afa116100c657806389fe3afa146104eb5780638da5cb5b1461052957806395d89b4114610554578063996b4f651461057f576101b7565b80636c883fbf1461045a57806370a0823114610497578063715018a6146104d4576101b7565b806334fbc9a1116101595780634a60f620116101335780634a60f620146103775780634cccf529146103a25780636352211e146103df5780636a1187171461041c576101b7565b806334fbc9a1146102f857806342842e0e1461032357806344896a9a1461034c576101b7565b8063095ea7b311610195578063095ea7b3146102615780630d2ce41d1461028a57806323b872dd146102a65780633444ff18146102cf576101b7565b806301ffc9a7146101bc57806306fdde03146101f9578063081812fc14610224575b600080fd5b3480156101c857600080fd5b506101e360048036038101906101de9190613429565b61072b565b6040516101f09190613471565b60405180910390f35b34801561020557600080fd5b5061020e61073d565b60405161021b919061351c565b60405180910390f35b34801561023057600080fd5b5061024b60048036038101906102469190613574565b6107cf565b60405161025891906135e2565b60405180910390f35b34801561026d57600080fd5b5061028860048036038101906102839190613629565b6107eb565b005b6102a4600480360381019061029f9190613a16565b610801565b005b3480156102b257600080fd5b506102cd60048036038101906102c89190613b1d565b610d5a565b005b3480156102db57600080fd5b506102f660048036038101906102f19190613b70565b610e5c565b005b34801561030457600080fd5b5061030d611075565b60405161031a9190613c26565b60405180910390f35b34801561032f57600080fd5b5061034a60048036038101906103459190613b1d565b61107b565b005b34801561035857600080fd5b5061036161109b565b60405161036e91906135e2565b60405180910390f35b34801561038357600080fd5b5061038c6110c1565b6040516103999190613c26565b60405180910390f35b3480156103ae57600080fd5b506103c960048036038101906103c49190613e86565b6110c7565b6040516103d69190613471565b60405180910390f35b3480156103eb57600080fd5b5061040660048036038101906104019190613574565b6111be565b60405161041391906135e2565b60405180910390f35b34801561042857600080fd5b50610443600480360381019061043e9190613f5d565b6111d0565b604051610451929190614168565b60405180910390f35b34801561046657600080fd5b50610481600480360381019061047c919061419f565b61142c565b60405161048e919061351c565b60405180910390f35b3480156104a357600080fd5b506104be60048036038101906104b991906141fb565b6114f5565b6040516104cb9190613c26565b60405180910390f35b3480156104e057600080fd5b506104e96115af565b005b3480156104f757600080fd5b50610512600480360381019061050d9190613f5d565b6115c3565b604051610520929190614228565b60405180910390f35b34801561053557600080fd5b5061053e6116a5565b60405161054b91906135e2565b60405180910390f35b34801561056057600080fd5b506105696116cf565b604051610576919061351c565b60405180910390f35b34801561058b57600080fd5b506105a660048036038101906105a19190613f5d565b611761565b6040516105b39190614306565b60405180910390f35b3480156105c857600080fd5b506105e360048036038101906105de9190613629565b611945565b6040516105f0919061351c565b60405180910390f35b34801561060557600080fd5b50610620600480360381019061061b9190614354565b6119fe565b005b34801561062e57600080fd5b5061064960048036038101906106449190614394565b611a14565b6040516106569190613471565b60405180910390f35b34801561066b57600080fd5b506106866004803603810190610681919061440c565b611b58565b005b34801561069457600080fd5b506106af60048036038101906106aa9190613574565b611b75565b6040516106bc919061351c565b60405180910390f35b3480156106d157600080fd5b506106ec60048036038101906106e7919061448f565b611b87565b6040516106f99190613471565b60405180910390f35b34801561070e57600080fd5b50610729600480360381019061072491906141fb565b611c1b565b005b600061073682611ca1565b9050919050565b60606000805461074c906144fe565b80601f0160208091040260200160405190810160405280929190818152602001828054610778906144fe565b80156107c55780601f1061079a576101008083540402835291602001916107c5565b820191906000526020600020905b8154815290600101906020018083116107a857829003601f168201915b5050505050905090565b60006107da82611d02565b506107e482611d8a565b9050919050565b6107fd82826107f8611dc7565b611dcf565b5050565b600954341015610846576040517f08c379a000000000000000000000000000000000000000000000000000000000815260040161083d9061457b565b60405180910390fd5b6000600c8660405161085891906145d7565b90815260200160405180910390206000018054610874906144fe565b905011156108b7576040517f08c379a00000000000000000000000000000000000000000000000000000000081526004016108ae9061463a565b60405180910390fd5b60008251116108fb576040517f08c379a00000000000000000000000000000000000000000000000000000000081526004016108f2906146a6565b60405180910390fd5b6000600b549050600081905060005b845181101561095c57610937858281518110610929576109286146c6565b5b602002602001015183611de1565b6109418285611eda565b818061094c90614724565b925050808060010191505061090a565b50600060018261096c919061476c565b905060005b8651811015610b8e577f845674d68138afa9bae1134317c863a5111678a62593e83592279826447aef8e8782815181106109ae576109ad6146c6565b5b60200260200101516001600381106109c9576109c86146c6565b5b60200201516040516020016109de91906145d7565b6040516020818303038152906040528051906020012003610b8157610b4a600a8054610a09906144fe565b80601f0160208091040260200160405190810160405280929190818152602001828054610a35906144fe565b8015610a825780601f10610a5757610100808354040283529160200191610a82565b820191906000526020600020905b815481529060010190602001808311610a6557829003601f168201915b50505050506040518060400160405280600181526020017f2f00000000000000000000000000000000000000000000000000000000000000815250610ac76000611f36565b6040518060400160405280600181526020017f2f00000000000000000000000000000000000000000000000000000000000000815250610b06896120f3565b6040518060400160405280600181526020017f2d00000000000000000000000000000000000000000000000000000000000000815250610b45896120f3565b6121c1565b878281518110610b5d57610b5c6146c6565b5b6020026020010151600260038110610b7857610b776146c6565b5b60200201819052505b8080600101915050610971565b50600181610b9c91906147a0565b600b81905550600060405180608001604052808981526020013373ffffffffffffffffffffffffffffffffffffffff168152602001888152602001604051806040016040528087815260200185815250815250905080600c8a604051610c0291906145d7565b90815260200160405180910390206000820151816000019081610c259190614980565b5060208201518160010160006101000a81548173ffffffffffffffffffffffffffffffffffffffff021916908373ffffffffffffffffffffffffffffffffffffffff1602179055506040820151816002019080519060200190610c89929190613180565b50606082015181600301906002610ca19291906131de565b50905050600e60003373ffffffffffffffffffffffffffffffffffffffff1673ffffffffffffffffffffffffffffffffffffffff16815260200190815260200160002088908060018154018082558091505060019003906000526020600020016000909190919091509081610d169190614980565b507fec58cbe88253b1b6d3db5a7c682ada2bdf10b7ec6f56c31de2fb3759bb335e836001604051610d479190613471565b60405180910390a1505050505050505050565b600073ffffffffffffffffffffffffffffffffffffffff168273ffffffffffffffffffffffffffffffffffffffff1603610dcc5760006040517f64a0ae92000000000000000000000000000000000000000000000000000000008152600401610dc391906135e2565b60405180910390fd5b6000610de08383610ddb611dc7565b6121fc565b90508373ffffffffffffffffffffffffffffffffffffffff168173ffffffffffffffffffffffffffffffffffffffff1614610e56578382826040517f64283d7b000000000000000000000000000000000000000000000000000000008152600401610e4d93929190614a52565b60405180910390fd5b50505050565b6000600c84604051610e6e91906145d7565b90815260200160405180910390206000018054610e8a906144fe565b90501115610ecd576040517f08c379a0000000000000000000000000000000000000000000000000000000008152600401610ec49061463a565b60405180910390fd5b610ed561321e565b600060405180608001604052808581526020013373ffffffffffffffffffffffffffffffffffffffff16815260200184815260200183815250905080600c86604051610f2191906145d7565b90815260200160405180910390206000820151816000019081610f449190614980565b5060208201518160010160006101000a81548173ffffffffffffffffffffffffffffffffffffffff021916908373ffffffffffffffffffffffffffffffffffffffff1602179055506040820151816002019080519060200190610fa8929190613180565b50606082015181600301906002610fc09291906131de565b50905050600e60003373ffffffffffffffffffffffffffffffffffffffff1673ffffffffffffffffffffffffffffffffffffffff168152602001908152602001600020849080600181540180825580915050600190039060005260206000200160009091909190915090816110359190614980565b507fec58cbe88253b1b6d3db5a7c682ada2bdf10b7ec6f56c31de2fb3759bb335e8360016040516110669190613471565b60405180910390a15050505050565b60095481565b61109683838360405180602001604052806000815250611b58565b505050565b600860009054906101000a900473ffffffffffffffffffffffffffffffffffffffff1681565b600b5481565b600080600860009054906101000a900473ffffffffffffffffffffffffffffffffffffffff1673ffffffffffffffffffffffffffffffffffffffff16631e8e1e1387876040518363ffffffff1660e01b8152600401611127929190614b9c565b602060405180830381865afa158015611144573d6000803e3d6000fd5b505050506040513d601f19601f820116820180604052508101906111689190614be8565b9050801561117b5761117a8484612416565b5b7f6e57af5d2b164b1a41c5bac950f5e63bfdbb78a3fd4e5968e745dfb5d3736fb1816040516111aa9190613471565b60405180910390a180915050949350505050565b60006111c982611d02565b9050919050565b6060806000600c846040516111e591906145d7565b90815260200160405180910390206000018054611201906144fe565b905011611243576040517f08c379a000000000000000000000000000000000000000000000000000000000815260040161123a90614c61565b60405180910390fd5b6000600c8460405161125591906145d7565b90815260200160405180910390206000018054611271906144fe565b80601f016020809104026020016040519081016040528092919081815260200182805461129d906144fe565b80156112ea5780601f106112bf576101008083540402835291602001916112ea565b820191906000526020600020905b8154815290600101906020018083116112cd57829003601f168201915b505050505090506000600c8560405161130391906145d7565b9081526020016040518091039020600201805480602002602001604051908101604052809291908181526020016000905b828210156114195783829060005260206000209060030201600380602002604051908101604052809291906000905b82821015611406578382018054611379906144fe565b80601f01602080910402602001604051908101604052809291908181526020018280546113a5906144fe565b80156113f25780601f106113c7576101008083540402835291602001916113f2565b820191906000526020600020905b8154815290600101906020018083116113d557829003601f168201915b505050505081526020019060010190611363565b5050505081526020019060010190611334565b5050505090508181935093505050915091565b600d6020528160005260406000208180516020810182018051848252602083016020850120818352809550505050505060009150915050806001018054611472906144fe565b80601f016020809104026020016040519081016040528092919081815260200182805461149e906144fe565b80156114eb5780601f106114c0576101008083540402835291602001916114eb565b820191906000526020600020905b8154815290600101906020018083116114ce57829003601f168201915b5050505050905081565b60008073ffffffffffffffffffffffffffffffffffffffff168273ffffffffffffffffffffffffffffffffffffffff16036115685760006040517f89c62b6400000000000000000000000000000000000000000000000000000000815260040161155f91906135e2565b60405180910390fd5b600360008373ffffffffffffffffffffffffffffffffffffffff1673ffffffffffffffffffffffffffffffffffffffff168152602001908152602001600020549050919050565b6115b761250e565b6115c16000612595565b565b600c818051602081018201805184825260208301602085012081835280955050505050506000915090508060000180546115fc906144fe565b80601f0160208091040260200160405190810160405280929190818152602001828054611628906144fe565b80156116755780601f1061164a57610100808354040283529160200191611675565b820191906000526020600020905b81548152906001019060200180831161165857829003601f168201915b5050505050908060010160009054906101000a900473ffffffffffffffffffffffffffffffffffffffff16905082565b6000600760009054906101000a900473ffffffffffffffffffffffffffffffffffffffff16905090565b6060600180546116de906144fe565b80601f016020809104026020016040519081016040528092919081815260200182805461170a906144fe565b80156117575780601f1061172c57610100808354040283529160200191611757565b820191906000526020600020905b81548152906001019060200180831161173a57829003601f168201915b5050505050905090565b60606000600d60003373ffffffffffffffffffffffffffffffffffffffff1673ffffffffffffffffffffffffffffffffffffffff168152602001908152602001600020836040516117b291906145d7565b908152602001604051809103902060010180546117ce906144fe565b905011611810576040517f08c379a000000000000000000000000000000000000000000000000000000000815260040161180790614ccd565b60405180910390fd5b600d60003373ffffffffffffffffffffffffffffffffffffffff1673ffffffffffffffffffffffffffffffffffffffff1681526020019081526020016000208260405161185d91906145d7565b9081526020016040518091039020600001805480602002602001604051908101604052809291908181526020016000905b8282101561193a5783829060005260206000200180546118ad906144fe565b80601f01602080910402602001604051908101604052809291908181526020018280546118d9906144fe565b80156119265780601f106118fb57610100808354040283529160200191611926565b820191906000526020600020905b81548152906001019060200180831161190957829003601f168201915b50505050508152602001906001019061188e565b505050509050919050565b600e602052816000526040600020818154811061196157600080fd5b9060005260206000200160009150915050805461197d906144fe565b80601f01602080910402602001604051908101604052809291908181526020018280546119a9906144fe565b80156119f65780601f106119cb576101008083540402835291602001916119f6565b820191906000526020600020905b8154815290600101906020018083116119d957829003601f168201915b505050505081565b611a10611a09611dc7565b838361265b565b5050565b600080600d60003373ffffffffffffffffffffffffffffffffffffffff1673ffffffffffffffffffffffffffffffffffffffff16815260200190815260200160002083604051611a6491906145d7565b90815260200160405180910390206001018054611a80906144fe565b80601f0160208091040260200160405190810160405280929190818152602001828054611aac906144fe565b8015611af95780601f10611ace57610100808354040283529160200191611af9565b820191906000526020600020905b815481529060010190602001808311611adc57829003601f168201915b5050505050905083604051602001611b1191906145d7565b6040516020818303038152906040528051906020012081604051602001611b3891906145d7565b604051602081830303815290604052805190602001201491505092915050565b611b63848484610d5a565b611b6f848484846127ca565b50505050565b6060611b8082612981565b9050919050565b6000600560008473ffffffffffffffffffffffffffffffffffffffff1673ffffffffffffffffffffffffffffffffffffffff16815260200190815260200160002060008373ffffffffffffffffffffffffffffffffffffffff1673ffffffffffffffffffffffffffffffffffffffff16815260200190815260200160002060009054906101000a900460ff16905092915050565b611c2361250e565b600073ffffffffffffffffffffffffffffffffffffffff168173ffffffffffffffffffffffffffffffffffffffff1603611c955760006040517f1e4fbdf7000000000000000000000000000000000000000000000000000000008152600401611c8c91906135e2565b60405180910390fd5b611c9e81612595565b50565b6000634906490660e01b7bffffffffffffffffffffffffffffffffffffffffffffffffffffffff1916827bffffffffffffffffffffffffffffffffffffffffffffffffffffffff19161480611cfb5750611cfa82612a94565b5b9050919050565b600080611d0e83612b76565b9050600073ffffffffffffffffffffffffffffffffffffffff168173ffffffffffffffffffffffffffffffffffffffff1603611d8157826040517f7e273289000000000000000000000000000000000000000000000000000000008152600401611d789190613c26565b60405180910390fd5b80915050919050565b60006004600083815260200190815260200160002060009054906101000a900473ffffffffffffffffffffffffffffffffffffffff169050919050565b600033905090565b611ddc8383836001612bb3565b505050565b600073ffffffffffffffffffffffffffffffffffffffff168273ffffffffffffffffffffffffffffffffffffffff1603611e535760006040517f64a0ae92000000000000000000000000000000000000000000000000000000008152600401611e4a91906135e2565b60405180910390fd5b6000611e61838360006121fc565b9050600073ffffffffffffffffffffffffffffffffffffffff168173ffffffffffffffffffffffffffffffffffffffff1614611ed55760006040517f73c6ac6e000000000000000000000000000000000000000000000000000000008152600401611ecc91906135e2565b60405180910390fd5b505050565b80600660008481526020019081526020016000209081611efa9190614980565b507ff8e1a15aba9398e019f0b49df1a4fde98ee17ae345cb5f6b5e2c27f5033e8ce782604051611f2a9190613c26565b60405180910390a15050565b60606000602867ffffffffffffffff811115611f5557611f54613673565b5b6040519080825280601f01601f191660200182016040528015611f875781602001600182028036833780820191505090505b50905060005b60148110156120e9576000816013611fa5919061476c565b6008611fb19190614ced565b6002611fbd9190614e62565b8573ffffffffffffffffffffffffffffffffffffffff16611fde9190614edc565b60f81b9050600060108260f81c611ff59190614f1a565b60f81b905060008160f81c601061200c9190614f4b565b8360f81c61201a9190614f88565b60f81b905061202882612d78565b858560026120369190614ced565b81518110612047576120466146c6565b5b60200101907effffffffffffffffffffffffffffffffffffffffffffffffffffffffffffff1916908160001a90535061207f81612d78565b85600186600261208f9190614ced565b61209991906147a0565b815181106120aa576120a96146c6565b5b60200101907effffffffffffffffffffffffffffffffffffffffffffffffffffffffffffff1916908160001a9053505050508080600101915050611f8d565b5080915050919050565b60606000600161210284612dbe565b01905060008167ffffffffffffffff81111561212157612120613673565b5b6040519080825280601f01601f1916602001820160405280156121535781602001600182028036833780820191505090505b509050600082602001820190505b6001156121b6578080600190039150507f3031323334353637383961626364656600000000000000000000000000000000600a86061a8153600a85816121aa576121a9614ead565b5b04945060008503612161575b819350505050919050565b6060878787878787876040516020016121e09796959493929190614fbd565b6040516020818303038152906040529050979650505050505050565b60008061220884612b76565b9050600073ffffffffffffffffffffffffffffffffffffffff168373ffffffffffffffffffffffffffffffffffffffff161461224a57612249818486612f11565b5b600073ffffffffffffffffffffffffffffffffffffffff168173ffffffffffffffffffffffffffffffffffffffff16146122db5761228c600085600080612bb3565b6001600360008373ffffffffffffffffffffffffffffffffffffffff1673ffffffffffffffffffffffffffffffffffffffff168152602001908152602001600020600082825403925050819055505b600073ffffffffffffffffffffffffffffffffffffffff168573ffffffffffffffffffffffffffffffffffffffff161461235e576001600360008773ffffffffffffffffffffffffffffffffffffffff1673ffffffffffffffffffffffffffffffffffffffff168152602001908152602001600020600082825401925050819055505b846002600086815260200190815260200160002060006101000a81548173ffffffffffffffffffffffffffffffffffffffff021916908373ffffffffffffffffffffffffffffffffffffffff160217905550838573ffffffffffffffffffffffffffffffffffffffff168273ffffffffffffffffffffffffffffffffffffffff167fddf252ad1be2c89b69c2b068fc378daa952ba7f163c4a11628f55a4df523b3ef60405160405180910390a4809150509392505050565b6000339050600083600081518110612431576124306146c6565b5b60200260200101519050600084600181518110612451576124506146c6565b5b602002602001015190506000604051806040016040528086815260200183815250905080600d60008673ffffffffffffffffffffffffffffffffffffffff1673ffffffffffffffffffffffffffffffffffffffff168152602001908152602001600020846040516124c291906145d7565b908152602001604051809103902060008201518160000190805190602001906124ec929190613240565b5060208201518160010190816125029190614980565b50905050505050505050565b612516611dc7565b73ffffffffffffffffffffffffffffffffffffffff166125346116a5565b73ffffffffffffffffffffffffffffffffffffffff161461259357612557611dc7565b6040517f118cdaa700000000000000000000000000000000000000000000000000000000815260040161258a91906135e2565b60405180910390fd5b565b6000600760009054906101000a900473ffffffffffffffffffffffffffffffffffffffff16905081600760006101000a81548173ffffffffffffffffffffffffffffffffffffffff021916908373ffffffffffffffffffffffffffffffffffffffff1602179055508173ffffffffffffffffffffffffffffffffffffffff168173ffffffffffffffffffffffffffffffffffffffff167f8be0079c531659141344cd1fd0a4f28419497f9722a3daafe3b4186f6b6457e060405160405180910390a35050565b600073ffffffffffffffffffffffffffffffffffffffff168273ffffffffffffffffffffffffffffffffffffffff16036126cc57816040517f5b08ba180000000000000000000000000000000000000000000000000000000081526004016126c391906135e2565b60405180910390fd5b80600560008573ffffffffffffffffffffffffffffffffffffffff1673ffffffffffffffffffffffffffffffffffffffff16815260200190815260200160002060008473ffffffffffffffffffffffffffffffffffffffff1673ffffffffffffffffffffffffffffffffffffffff16815260200190815260200160002060006101000a81548160ff0219169083151502179055508173ffffffffffffffffffffffffffffffffffffffff168373ffffffffffffffffffffffffffffffffffffffff167f17307eab39ab6107e8899845ad3d59bd9653f200f220920489ca2b5937696c31836040516127bd9190613471565b60405180910390a3505050565b60008373ffffffffffffffffffffffffffffffffffffffff163b111561297b578273ffffffffffffffffffffffffffffffffffffffff1663150b7a0261280e611dc7565b8685856040518563ffffffff1660e01b81526004016128309493929190615022565b6020604051808303816000875af192505050801561286c57506040513d601f19601f820116820180604052508101906128699190615083565b60015b6128f0573d806000811461289c576040519150601f19603f3d011682016040523d82523d6000602084013e6128a1565b606091505b5060008151036128e857836040517f64a0ae920000000000000000000000000000000000000000000000000000000081526004016128df91906135e2565b60405180910390fd5b805181602001fd5b63150b7a0260e01b7bffffffffffffffffffffffffffffffffffffffffffffffffffffffff1916817bffffffffffffffffffffffffffffffffffffffffffffffffffffffff19161461297957836040517f64a0ae9200000000000000000000000000000000000000000000000000000000815260040161297091906135e2565b60405180910390fd5b505b50505050565b606061298c82611d02565b5060006006600084815260200190815260200160002080546129ad906144fe565b80601f01602080910402602001604051908101604052809291908181526020018280546129d9906144fe565b8015612a265780601f106129fb57610100808354040283529160200191612a26565b820191906000526020600020905b815481529060010190602001808311612a0957829003601f168201915b505050505090506000612a37612fd5565b90506000815103612a4c578192505050612a8f565b600082511115612a81578082604051602001612a699291906150b0565b60405160208183030381529060405292505050612a8f565b612a8a84612fec565b925050505b919050565b60007f80ac58cd000000000000000000000000000000000000000000000000000000007bffffffffffffffffffffffffffffffffffffffffffffffffffffffff1916827bffffffffffffffffffffffffffffffffffffffffffffffffffffffff19161480612b5f57507f5b5e139f000000000000000000000000000000000000000000000000000000007bffffffffffffffffffffffffffffffffffffffffffffffffffffffff1916827bffffffffffffffffffffffffffffffffffffffffffffffffffffffff1916145b80612b6f5750612b6e82613055565b5b9050919050565b60006002600083815260200190815260200160002060009054906101000a900473ffffffffffffffffffffffffffffffffffffffff169050919050565b8080612bec5750600073ffffffffffffffffffffffffffffffffffffffff168273ffffffffffffffffffffffffffffffffffffffff1614155b15612d20576000612bfc84611d02565b9050600073ffffffffffffffffffffffffffffffffffffffff168373ffffffffffffffffffffffffffffffffffffffff1614158015612c6757508273ffffffffffffffffffffffffffffffffffffffff168173ffffffffffffffffffffffffffffffffffffffff1614155b8015612c7a5750612c788184611b87565b155b15612cbc57826040517fa9fbf51f000000000000000000000000000000000000000000000000000000008152600401612cb391906135e2565b60405180910390fd5b8115612d1e57838573ffffffffffffffffffffffffffffffffffffffff168273ffffffffffffffffffffffffffffffffffffffff167f8c5be1e5ebec7d5bd14f71427d1e84f3dd0314c0f7b2291e5b200ac8c7c3b92560405160405180910390a45b505b836004600085815260200190815260200160002060006101000a81548173ffffffffffffffffffffffffffffffffffffffff021916908373ffffffffffffffffffffffffffffffffffffffff16021790555050505050565b6000600a8260f81c60ff161015612da35760308260f81c612d9991906150d4565b60f81b9050612db9565b60578260f81c612db391906150d4565b60f81b90505b919050565b600080600090507a184f03e93ff9f4daa797ed6e38ed64bf6a1f0100000000000000008310612e1c577a184f03e93ff9f4daa797ed6e38ed64bf6a1f0100000000000000008381612e1257612e11614ead565b5b0492506040810190505b6d04ee2d6d415b85acef81000000008310612e59576d04ee2d6d415b85acef81000000008381612e4f57612e4e614ead565b5b0492506020810190505b662386f26fc100008310612e8857662386f26fc100008381612e7e57612e7d614ead565b5b0492506010810190505b6305f5e1008310612eb1576305f5e1008381612ea757612ea6614ead565b5b0492506008810190505b6127108310612ed6576127108381612ecc57612ecb614ead565b5b0492506004810190505b60648310612ef95760648381612eef57612eee614ead565b5b0492506002810190505b600a8310612f08576001810190505b80915050919050565b612f1c8383836130bf565b612fd057600073ffffffffffffffffffffffffffffffffffffffff168373ffffffffffffffffffffffffffffffffffffffff1603612f9157806040517f7e273289000000000000000000000000000000000000000000000000000000008152600401612f889190613c26565b60405180910390fd5b81816040517f177e802f000000000000000000000000000000000000000000000000000000008152600401612fc7929190615109565b60405180910390fd5b505050565b606060405180602001604052806000815250905090565b6060612ff782611d02565b506000613002612fd5565b90506000815111613022576040518060200160405280600081525061304d565b8061302c846120f3565b60405160200161303d9291906150b0565b6040516020818303038152906040525b915050919050565b60007f01ffc9a7000000000000000000000000000000000000000000000000000000007bffffffffffffffffffffffffffffffffffffffffffffffffffffffff1916827bffffffffffffffffffffffffffffffffffffffffffffffffffffffff1916149050919050565b60008073ffffffffffffffffffffffffffffffffffffffff168373ffffffffffffffffffffffffffffffffffffffff161415801561317757508273ffffffffffffffffffffffffffffffffffffffff168473ffffffffffffffffffffffffffffffffffffffff16148061313857506131378484611b87565b5b8061317657508273ffffffffffffffffffffffffffffffffffffffff1661315e83611d8a565b73ffffffffffffffffffffffffffffffffffffffff16145b5b90509392505050565b8280548282559060005260206000209060030281019282156131cd579160200282015b828111156131cc578251829060036131bc929190613299565b50916020019190600301906131a3565b5b5090506131da91906132e5565b5090565b826002810192821561320d579160200282015b8281111561320c5782518255916020019190600101906131f1565b5b50905061321a9190613309565b5090565b6040518060400160405280600290602082028036833780820191505090505090565b828054828255906000526020600020908101928215613288579160200282015b828111156132875782518290816132779190614980565b5091602001919060010190613260565b5b5090506132959190613326565b5090565b82600381019282156132d4579160200282015b828111156132d35782518290816132c39190614980565b50916020019190600101906132ac565b5b5090506132e19190613326565b5090565b5b8082111561330557600081816132fc919061334a565b506003016132e6565b5090565b5b8082111561332257600081600090555060010161330a565b5090565b5b80821115613346576000818161333d919061337d565b50600101613327565b5090565b5060008181613359919061337d565b506001016000818161336b919061337d565b50600101600061337b919061337d565b565b508054613389906144fe565b6000825580601f1061339b57506133ba565b601f0160209004906000526020600020908101906133b99190613309565b5b50565b6000604051905090565b600080fd5b600080fd5b60007fffffffff0000000000000000000000000000000000000000000000000000000082169050919050565b613406816133d1565b811461341157600080fd5b50565b600081359050613423816133fd565b92915050565b60006020828403121561343f5761343e6133c7565b5b600061344d84828501613414565b91505092915050565b60008115159050919050565b61346b81613456565b82525050565b60006020820190506134866000830184613462565b92915050565b600081519050919050565b600082825260208201905092915050565b60005b838110156134c65780820151818401526020810190506134ab565b60008484015250505050565b6000601f19601f8301169050919050565b60006134ee8261348c565b6134f88185613497565b93506135088185602086016134a8565b613511816134d2565b840191505092915050565b6000602082019050818103600083015261353681846134e3565b905092915050565b6000819050919050565b6135518161353e565b811461355c57600080fd5b50565b60008135905061356e81613548565b92915050565b60006020828403121561358a576135896133c7565b5b60006135988482850161355f565b91505092915050565b600073ffffffffffffffffffffffffffffffffffffffff82169050919050565b60006135cc826135a1565b9050919050565b6135dc816135c1565b82525050565b60006020820190506135f760008301846135d3565b92915050565b613606816135c1565b811461361157600080fd5b50565b600081359050613623816135fd565b92915050565b600080604083850312156136405761363f6133c7565b5b600061364e85828601613614565b925050602061365f8582860161355f565b9150509250929050565b600080fd5b600080fd5b7f4e487b7100000000000000000000000000000000000000000000000000000000600052604160045260246000fd5b6136ab826134d2565b810181811067ffffffffffffffff821117156136ca576136c9613673565b5b80604052505050565b60006136dd6133bd565b90506136e982826136a2565b919050565b600067ffffffffffffffff82111561370957613708613673565b5b613712826134d2565b9050602081019050919050565b82818337600083830152505050565b600061374161373c846136ee565b6136d3565b90508281526020810184848401111561375d5761375c61366e565b5b61376884828561371f565b509392505050565b600082601f83011261378557613784613669565b5b813561379584826020860161372e565b91505092915050565b600067ffffffffffffffff8211156137b9576137b8613673565b5b602082029050602081019050919050565b600080fd5b600067ffffffffffffffff8211156137ea576137e9613673565b5b602082029050919050565b6000613808613803846137cf565b6136d3565b90508060208402830185811115613822576138216137ca565b5b835b8181101561386957803567ffffffffffffffff81111561384757613846613669565b5b8086016138548982613770565b85526020850194505050602081019050613824565b5050509392505050565b600082601f83011261388857613887613669565b5b60036138958482856137f5565b91505092915050565b60006138b16138ac8461379e565b6136d3565b905080838252602082019050602084028301858111156138d4576138d36137ca565b5b835b8181101561391b57803567ffffffffffffffff8111156138f9576138f8613669565b5b8086016139068982613873565b855260208501945050506020810190506138d6565b5050509392505050565b600082601f83011261393a57613939613669565b5b813561394a84826020860161389e565b91505092915050565b600067ffffffffffffffff82111561396e5761396d613673565b5b602082029050602081019050919050565b600061399261398d84613953565b6136d3565b905080838252602082019050602084028301858111156139b5576139b46137ca565b5b835b818110156139de57806139ca8882613614565b8452602084019350506020810190506139b7565b5050509392505050565b600082601f8301126139fd576139fc613669565b5b8135613a0d84826020860161397f565b91505092915050565b600080600080600060a08688031215613a3257613a316133c7565b5b600086013567ffffffffffffffff811115613a5057613a4f6133cc565b5b613a5c88828901613770565b955050602086013567ffffffffffffffff811115613a7d57613a7c6133cc565b5b613a8988828901613770565b945050604086013567ffffffffffffffff811115613aaa57613aa96133cc565b5b613ab688828901613925565b935050606086013567ffffffffffffffff811115613ad757613ad66133cc565b5b613ae3888289016139e8565b925050608086013567ffffffffffffffff811115613b0457613b036133cc565b5b613b1088828901613770565b9150509295509295909350565b600080600060608486031215613b3657613b356133c7565b5b6000613b4486828701613614565b9350506020613b5586828701613614565b9250506040613b668682870161355f565b9150509250925092565b600080600060608486031215613b8957613b886133c7565b5b600084013567ffffffffffffffff811115613ba757613ba66133cc565b5b613bb386828701613770565b935050602084013567ffffffffffffffff811115613bd457613bd36133cc565b5b613be086828701613770565b925050604084013567ffffffffffffffff811115613c0157613c006133cc565b5b613c0d86828701613925565b9150509250925092565b613c208161353e565b82525050565b6000602082019050613c3b6000830184613c17565b92915050565b600067ffffffffffffffff821115613c5c57613c5b613673565b5b613c65826134d2565b9050602081019050919050565b6000613c85613c8084613c41565b6136d3565b905082815260208101848484011115613ca157613ca061366e565b5b613cac84828561371f565b509392505050565b600082601f830112613cc957613cc8613669565b5b8135613cd9848260208601613c72565b91505092915050565b600067ffffffffffffffff821115613cfd57613cfc613673565b5b602082029050602081019050919050565b6000613d21613d1c84613ce2565b6136d3565b90508083825260208201905060208402830185811115613d4457613d436137ca565b5b835b81811015613d6d5780613d59888261355f565b845260208401935050602081019050613d46565b5050509392505050565b600082601f830112613d8c57613d8b613669565b5b8135613d9c848260208601613d0e565b91505092915050565b600067ffffffffffffffff821115613dc057613dbf613673565b5b602082029050602081019050919050565b6000613de4613ddf84613da5565b6136d3565b90508083825260208201905060208402830185811115613e0757613e066137ca565b5b835b81811015613e4e57803567ffffffffffffffff811115613e2c57613e2b613669565b5b808601613e398982613770565b85526020850194505050602081019050613e09565b5050509392505050565b600082601f830112613e6d57613e6c613669565b5b8135613e7d848260208601613dd1565b91505092915050565b60008060008060808587031215613ea057613e9f6133c7565b5b600085013567ffffffffffffffff811115613ebe57613ebd6133cc565b5b613eca87828801613cb4565b945050602085013567ffffffffffffffff811115613eeb57613eea6133cc565b5b613ef787828801613d77565b935050604085013567ffffffffffffffff811115613f1857613f176133cc565b5b613f2487828801613e58565b925050606085013567ffffffffffffffff811115613f4557613f446133cc565b5b613f5187828801613e58565b91505092959194509250565b600060208284031215613f7357613f726133c7565b5b600082013567ffffffffffffffff811115613f9157613f906133cc565b5b613f9d84828501613770565b91505092915050565b600081519050919050565b600082825260208201905092915050565b6000819050602082019050919050565b600060039050919050565b600081905092915050565b6000819050919050565b600082825260208201905092915050565b600061400e8261348c565b6140188185613ff2565b93506140288185602086016134a8565b614031816134d2565b840191505092915050565b60006140488383614003565b905092915050565b6000602082019050919050565b600061406882613fd2565b6140728185613fdd565b93508360208202850161408485613fe8565b8060005b858110156140c057848403895281516140a1858261403c565b94506140ac83614050565b925060208a01995050600181019050614088565b50829750879550505050505092915050565b60006140de838361405d565b905092915050565b6000602082019050919050565b60006140fe82613fa6565b6141088185613fb1565b93508360208202850161411a85613fc2565b8060005b85811015614156578484038952815161413785826140d2565b9450614142836140e6565b925060208a0199505060018101905061411e565b50829750879550505050505092915050565b6000604082019050818103600083015261418281856134e3565b9050818103602083015261419681846140f3565b90509392505050565b600080604083850312156141b6576141b56133c7565b5b60006141c485828601613614565b925050602083013567ffffffffffffffff8111156141e5576141e46133cc565b5b6141f185828601613770565b9150509250929050565b600060208284031215614211576142106133c7565b5b600061421f84828501613614565b91505092915050565b6000604082019050818103600083015261424281856134e3565b905061425160208301846135d3565b9392505050565b600081519050919050565b600082825260208201905092915050565b6000819050602082019050919050565b6000602082019050919050565b600061429c82614258565b6142a68185614263565b9350836020820285016142b885614274565b8060005b858110156142f457848403895281516142d5858261403c565b94506142e083614284565b925060208a019950506001810190506142bc565b50829750879550505050505092915050565b600060208201905081810360008301526143208184614291565b905092915050565b61433181613456565b811461433c57600080fd5b50565b60008135905061434e81614328565b92915050565b6000806040838503121561436b5761436a6133c7565b5b600061437985828601613614565b925050602061438a8582860161433f565b9150509250929050565b600080604083850312156143ab576143aa6133c7565b5b600083013567ffffffffffffffff8111156143c9576143c86133cc565b5b6143d585828601613770565b925050602083013567ffffffffffffffff8111156143f6576143f56133cc565b5b61440285828601613770565b9150509250929050565b60008060008060808587031215614426576144256133c7565b5b600061443487828801613614565b945050602061444587828801613614565b93505060406144568782880161355f565b925050606085013567ffffffffffffffff811115614477576144766133cc565b5b61448387828801613cb4565b91505092959194509250565b600080604083850312156144a6576144a56133c7565b5b60006144b485828601613614565b92505060206144c585828601613614565b9150509250929050565b7f4e487b7100000000000000000000000000000000000000000000000000000000600052602260045260246000fd5b6000600282049050600182168061451657607f821691505b602082108103614529576145286144cf565b5b50919050565b7f496e73756666696369656e7420706c6174666f726d2066656500000000000000600082015250565b6000614565601983613497565b91506145708261452f565b602082019050919050565b6000602082019050818103600083015261459481614558565b9050919050565b600081905092915050565b60006145b18261348c565b6145bb818561459b565b93506145cb8185602086016134a8565b80840191505092915050565b60006145e382846145a6565b915081905092915050565b7f53657276657220616c7265616479206578697374730000000000000000000000600082015250565b6000614624601583613497565b915061462f826145ee565b602082019050919050565b6000602082019050818103600083015261465381614617565b9050919050565b7f4e6f206d656d6265724164647265737365732070726f76696465640000000000600082015250565b6000614690601b83613497565b915061469b8261465a565b602082019050919050565b600060208201905081810360008301526146bf81614683565b9050919050565b7f4e487b7100000000000000000000000000000000000000000000000000000000600052603260045260246000fd5b7f4e487b7100000000000000000000000000000000000000000000000000000000600052601160045260246000fd5b600061472f8261353e565b91507fffffffffffffffffffffffffffffffffffffffffffffffffffffffffffffffff8203614761576147606146f5565b5b600182019050919050565b60006147778261353e565b91506147828361353e565b925082820390508181111561479a576147996146f5565b5b92915050565b60006147ab8261353e565b91506147b68361353e565b92508282019050808211156147ce576147cd6146f5565b5b92915050565b60008190508160005260206000209050919050565b60006020601f8301049050919050565b600082821b905092915050565b6000600883026148367fffffffffffffffffffffffffffffffffffffffffffffffffffffffffffffffff826147f9565b61484086836147f9565b95508019841693508086168417925050509392505050565b6000819050919050565b600061487d6148786148738461353e565b614858565b61353e565b9050919050565b6000819050919050565b61489783614862565b6148ab6148a382614884565b848454614806565b825550505050565b600090565b6148c06148b3565b6148cb81848461488e565b505050565b5b818110156148ef576148e46000826148b8565b6001810190506148d1565b5050565b601f82111561493457614905816147d4565b61490e846147e9565b8101602085101561491d578190505b614931614929856147e9565b8301826148d0565b50505b505050565b600082821c905092915050565b600061495760001984600802614939565b1980831691505092915050565b60006149708383614946565b9150826002028217905092915050565b6149898261348c565b67ffffffffffffffff8111156149a2576149a1613673565b5b6149ac82546144fe565b6149b78282856148f3565b600060209050601f8311600181146149ea57600084156149d8578287015190505b6149e28582614964565b865550614a4a565b601f1984166149f8866147d4565b60005b82811015614a20578489015182556001820191506020850194506020810190506149fb565b86831015614a3d5784890151614a39601f891682614946565b8355505b6001600288020188555050505b505050505050565b6000606082019050614a6760008301866135d3565b614a746020830185613c17565b614a8160408301846135d3565b949350505050565b600081519050919050565b600082825260208201905092915050565b6000614ab082614a89565b614aba8185614a94565b9350614aca8185602086016134a8565b614ad3816134d2565b840191505092915050565b600081519050919050565b600082825260208201905092915050565b6000819050602082019050919050565b614b138161353e565b82525050565b6000614b258383614b0a565b60208301905092915050565b6000602082019050919050565b6000614b4982614ade565b614b538185614ae9565b9350614b5e83614afa565b8060005b83811015614b8f578151614b768882614b19565b9750614b8183614b31565b925050600181019050614b62565b5085935050505092915050565b60006040820190508181036000830152614bb68185614aa5565b90508181036020830152614bca8184614b3e565b90509392505050565b600081519050614be281614328565b92915050565b600060208284031215614bfe57614bfd6133c7565b5b6000614c0c84828501614bd3565b91505092915050565b7f536572766572206e6f7420666f756e6400000000000000000000000000000000600082015250565b6000614c4b601083613497565b9150614c5682614c15565b602082019050919050565b60006020820190508181036000830152614c7a81614c3e565b9050919050565b7f55736572206e6f7420666f756e64000000000000000000000000000000000000600082015250565b6000614cb7600e83613497565b9150614cc282614c81565b602082019050919050565b60006020820190508181036000830152614ce681614caa565b9050919050565b6000614cf88261353e565b9150614d038361353e565b9250828202614d118161353e565b91508282048414831517614d2857614d276146f5565b5b5092915050565b60008160011c9050919050565b6000808291508390505b6001851115614d8657808604811115614d6257614d616146f5565b5b6001851615614d715780820291505b8081029050614d7f85614d2f565b9450614d46565b94509492505050565b600082614d9f5760019050614e5b565b81614dad5760009050614e5b565b8160018114614dc35760028114614dcd57614dfc565b6001915050614e5b565b60ff841115614ddf57614dde6146f5565b5b8360020a915084821115614df657614df56146f5565b5b50614e5b565b5060208310610133831016604e8410600b8410161715614e315782820a905083811115614e2c57614e2b6146f5565b5b614e5b565b614e3e8484846001614d3c565b92509050818404811115614e5557614e546146f5565b5b81810290505b9392505050565b6000614e6d8261353e565b9150614e788361353e565b9250614ea57fffffffffffffffffffffffffffffffffffffffffffffffffffffffffffffffff8484614d8f565b905092915050565b7f4e487b7100000000000000000000000000000000000000000000000000000000600052601260045260246000fd5b6000614ee78261353e565b9150614ef28361353e565b925082614f0257614f01614ead565b5b828204905092915050565b600060ff82169050919050565b6000614f2582614f0d565b9150614f3083614f0d565b925082614f4057614f3f614ead565b5b828204905092915050565b6000614f5682614f0d565b9150614f6183614f0d565b9250828202614f6f81614f0d565b9150808214614f8157614f806146f5565b5b5092915050565b6000614f9382614f0d565b9150614f9e83614f0d565b9250828203905060ff811115614fb757614fb66146f5565b5b92915050565b6000614fc9828a6145a6565b9150614fd582896145a6565b9150614fe182886145a6565b9150614fed82876145a6565b9150614ff982866145a6565b915061500582856145a6565b915061501182846145a6565b915081905098975050505050505050565b600060808201905061503760008301876135d3565b61504460208301866135d3565b6150516040830185613c17565b81810360608301526150638184614aa5565b905095945050505050565b60008151905061507d816133fd565b92915050565b600060208284031215615099576150986133c7565b5b60006150a78482850161506e565b91505092915050565b60006150bc82856145a6565b91506150c882846145a6565b91508190509392505050565b60006150df82614f0d565b91506150ea83614f0d565b9250828201905060ff811115615103576151026146f5565b5b92915050565b600060408201905061511e60008301856135d3565b61512b6020830184613c17565b939250505056fea2646970667358221220335e9c6cd069fd0c00f31546145a4c80fec0e45a8377ed0dbbf8299b980c788164736f6c63430008180033",
  "linkReferences": {},
  "deployedLinkReferences": {}
}